:020000040800F2
:1000000020060020290200083702000839020008F3
:100010003B0200083D0200083F020008000000000B
:100020000000000000000000000000004102000885
:1000300043020008000000004502000847020008D3
:100040004902000849020008490200084902000864
:100050004902000849020008490200084902000854
:100060004902000849020008490200084902000844
:100070004902000849020008490200084902000834
:100080004902000849020008490200084902000824
:100090004902000849020008490200084902000814
:1000A0004902000849020008490200084902000804
:1000B000491C0008490200084902000849020008DA
:1000C00049020008490200084902000849020008E4
:1000D000490200088521000849020008E1210008C2
:1000E00049020008490200084902000849020008C4
:1000F00049020008490200084902000849020008B4
:1001000049020008490200084902000849020008A3
:100110004902000849020008490200084902000893
:100120004902000849020008490200084902000883
:100130004902000849020008490200084902000873
:100140004902000849020008490200084902000863
:100150004902000849020008490200084902000853
:100160004902000849020008490200084902000843
:100170004902000849020008490200084902000833
:10018000490200084902000800F002F800F03CF8BB
:100190000AA090E8000C82448344AAF10107DA45E2
:1001A00001D100F031F8AFF2090EBAE80F0013F0F8
:1001B000010F18BFFB1A43F001031847182D000068
:1001C000382D0000103A24BF78C878C1FAD85207F9
:1001D00024BF30C830C144BF04680C6070470000C1
:1001E0000023002400250026103A28BF78C1FBD840
:1001F000520728BF30C148BF0B6070471FB502F0DF
:1002000057FA1FBD10B510BD00F035F81146FFF7C5
:10021000F5FF02F0EDF800F053F803B4FFF7F2FF3A
:1002200003BC02F00DF800000B48016841F47001B6
:1002300001600A480047FEE7FEE7FEE7FEE7FEE74B
:10024000FEE7FEE7FEE7FEE7FEE70000044805499B
:10025000034A054B7047000088ED00E08901000863
:100260002002002020060020200200207047704756
:10027000704770477047754600F028F8AE46050095
:100280006946534620F00700854618B020B5FFF7B1
:10029000DDFFBDE820404FF000064FF000074FF0B3
:1002A00000084FF0000B21F00701AC46ACE8C00994
:1002B000ACE8C009ACE8C009ACE8C0098D4670479D
:1002C0000446AFF300802046FFF7A7FF00487047C1
:1002D000BC01002010B5044602201749086025E043
:1002E000C82001F0CFFF00BF1448006828B11348B0
:1002F0001838006808B1012000E000200128F3D17F
:10030000C82001F0BFFF00BF0C482C38006838B986
:100310000A483038006818B908483438006808B10D
:10032000012000E000200128EED1641E002CD7D16E
:100330000C200149086010BD140000203C0242421C
:1003400010B504463D480088082806D1002000F07A
:1003500009FE002000F056FE6EE0384800880C28A8
:1003600007D11E2000F0FEFD6FF01D0000F04AFED8
:1003700062E032480088062803D03048008804280C
:1003800007D1232000F0EEFD6FF0220000F03AFECE
:1003900052E02A480088022803D028480088032811
:1003A00007D1282000F0DEFD6FF0270000F02AFEC4
:1003B00042E022480088012807D1322000F0D2FD17
:1003C0006FF0310000F01EFE36E01C48008818284F
:1003D00007D16FF01D0000F0C5FD1E2000F012FED9
:1003E0002AE016480088302803D0144800881028D6
:1003F00007D16FF0220000F0B5FD232000F002FECF
:100400001AE00E480088202803D00C480088602895
:1004100007D16FF0270000F0A5FD282000F0F2FDC5
:100420000AE006480088402806D16FF0310000F04D
:1004300099FD322000F0E6FD10BD00000C00002008
:1004400070B505466FF0270443480088082806D198
:10045000234622462146204601F0AEFA7BE03E4884
:1004600000880C2807D1A4F10A032246611D20460A
:1004700001F0A2FA6FE038480088062803D0364819
:100480000088042808D1A4F10F03224604F10A01D0
:10049000204601F091FA5EE02F480088022803D040
:1004A0002D480088032808D1A4F11403224604F142
:1004B0000F01204601F080FA4DE02748008801280E
:1004C00008D1A4F11E03224604F11401204601F0D4
:1004D00073FA40E020480088182807D1A4F10A01E7
:1004E000631D2246204601F067FA34E01A4800886E
:1004F000302803D018480088102808D1A4F10F0133
:1005000004F10A032246204601F056FA23E012487D
:100510000088202803D010480088602808D1A4F162
:10052000140104F10F032246204601F045FA12E0BF
:1005300009480088402808D1A4F11E0104F11403E1
:100540002246204601F038FA05E02346224621469D
:10055000204601F031FA70BD0C00002010B500F00B
:10056000EDFF002332221146184601F025FA00BFA4
:100570004648006828B145481038006808B1012095
:1005800000E000200128F3D1C82001F07BFE00BF6D
:100590003E482030006838B93C481C30006818B923
:1005A0003A481830006808B1012000E00020012816
:1005B000EED10C20364908604FF4967001F062FECF
:1005C0000121002000F05EFD0121022000F05AFD13
:1005D000002431E024B1012C05D0022C09D105E022
:1005E00000F076FA06E000F04BFA03E000F02CFA97
:1005F00000E000BF00BF2748005D012804D00228AA
:1006000007D003280FD109E00621012000F03AFDB0
:100610000AE00621032000F035FD05E00621052053
:1006200000F030FD00E000BF00BF00F03FFF0121FF
:10063000022000F027FD641C022CCBDD01210020EC
:1006400000F020FD0021084600F01CFD05201049A7
:10065000086000236FF031021146184601F0ACF932
:1006600000BF0A48006828B108481038006808B17F
:10067000012000E000200128F3D14FF4967001F032
:1006800001FE00200249086010BD00001402434230
:10069000140000202700002010B50446012017494F
:1006A000086024E0C82001F0EDFD00BF1448006898
:1006B00028B113481838006808B1012000E0002074
:1006C0000128F3D1C82001F0DDFD00BF0D4800680E
:1006D00038B90C48001F006818B90A480838006883
:1006E00008B1012000E000200128EFD1641E002C99
:1006F000D8D10C200149086010BD00001400002072
:100700003C0243421002424210B504463D48008874
:10071000082806D1002000F0FDFB002000F0FAFBC5
:100720006EE0384800880C2807D11E2000F0F2FB4C
:100730006FF01D0000F03EFC62E0324800880628A1
:1007400003D030480088042807D1232000F0E2FBC2
:100750006FF0220000F02EFC52E02A4800880228A8
:1007600003D028480088032807D1282000F0D2FBB6
:100770006FF0270000F01EFC42E0224800880128AC
:1007800007D1322000F0C6FB6FF0310000F012FC00
:1007900036E01C480088182807D16FF01D0000F0D3
:1007A000B9FB1E2000F006FC2AE01648008830281D
:1007B00003D014480088102807D16FF0220000F001
:1007C000A9FB232000F0F6FB1AE00E480088202841
:1007D00003D00C480088602807D16FF0270000F094
:1007E00099FB282000F0E6FB0AE006480088402834
:1007F00006D16FF0310000F08DFB322000F0DAFB03
:1008000010BD00001000002070B5054628244548A2
:100810000088082806D1234622462146204601F0BA
:10082000CBF87DE03F4800880C2808D1A4F10A02EB
:100830002346214604F10F0001F0BEF870E039486C
:100840000088062803D037480088042808D1A4F17E
:100850000F022346214604F1140001F0ADF85FE0D9
:1008600030480088022803D02E480088032808D189
:10087000A4F114022346214604F1190001F09CF86A
:100880004EE028480088012808D1A4F11902234627
:10089000214604F1280001F08FF841E0214800884A
:1008A000182808D1A4F10A00234604F10F022146BA
:1008B00001F082F834E01B480088302803D0194842
:1008C0000088102808D1A4F10F00234604F1140277
:1008D000214601F071F823E012480088202803D057
:1008E00010480088602808D1A4F11400234604F1C0
:1008F0001902214601F060F812E00A4800884028F9
:1009000008D1A4F11900234604F12802214601F080
:1009100053F805E0234622462146204601F04CF8D4
:1009200070BD00001000002030B5CC1000F1200395
:1009300053F824304C07E50E0F24AC40A343CD10F0
:1009400000F1200444F82530CC1000F1200353F8C6
:1009500024304C07E40E02FA04F42343CD1000F1D6
:10096000200444F8253030BD2DE9F0470C46DDE980
:100970000867002100258C4600BF60E04FF00108A9
:1009800008FA01F504EA050CAC4557D1D0F800800F
:100990004FEA410A4FF0030909FA0AF928EA09085F
:1009A000C0F80080D0F800804FEA410902FA09F946
:1009B00048EA0908C0F80080012A01D0022A27D19C
:1009C000D0F808804FEA410A4FF0030909FA0AF902
:1009D00028EA0908C0F80880D0F808804FEA4109E1
:1009E00006FA09F948EA0908C0F80880D0F8049026
:1009F0004FF0010808FA01F829EA0809C0F8049044
:100A0000D0F8048003FA01F948EA0908C0F8048024
:100A1000D0F80C804FEA410A4FF0030909FA0AF9AD
:100A200028EA0908C0F80C80D0F80C804FEA410988
:100A300007FA09F948EA0908C0F80C80491C10298E
:100A40009CD3BDE8F087000010B504200B49086076
:100A500003200860642001F015FC0B2007490860A2
:100A60004FF4C87001F00EFC00200449086000F04B
:100A700023FF012000F054F810BD000014000020F6
:100A800010B504201049086000BF1048006828B164
:100A90000E481838006808B1012000E00020012845
:100AA000F3D1322001F0EEFB0B20074908604FF430
:100AB000C87001F0E7FB00200349086000F020FF48
:100AC000012000F02DF810BD140000201802424251
:100AD00010B504201049086000BF1048006828B114
:100AE0000E481838006808B1012000E000200128F5
:100AF000F3D1322001F0C6FB0B20074908604FF408
:100B0000C87001F0BFFB00200349086000F020FF1F
:100B1000012000F005F810BD140000201802424228
:100B200010B5044603201749086024E0C82001F0EE
:100B3000A9FB00BF1448006828B1134818380068A2
:100B400008B1012000E000200128F3D1C82001F005
:100B500099FB00BF0D48006838B90C48001F0068B9
:100B600018B90A480838006808B1012000E00020E0
:100B70000128EFD1641E002CD8D10C200149086057
:100B800010BD00001400002018024342340242420B
:100B900010B5044653480088142803D051480088F3
:100BA0001C2806D1002000F0B5F9002000F0DAF989
:100BB00096E04C4800880C2807D04A4800880A284C
:100BC00003D0484800880E2806D11E2000F0A2F964
:100BD0001E2000F0C7F983E04248008806280BD0A9
:100BE00040480088042807D03E480088072803D0E2
:100BF0003C480088052806D11E2000F08BF91E20F5
:100C000000F0B0F96CE037480088022803D035487E
:100C10000088032806D1232000F07CF9232000F06F
:100C2000A1F95DE02F480088012803D02D480088F5
:100C3000052806D1282000F06DF9282000F092F94F
:100C40004EE028480088182807D026480088282821
:100C500003D024480088502808D16FF01D0000F010
:100C600059F96FF01D0000F07DF939E01D4800884A
:100C700030280BD01B480088102807D0194800885E
:100C8000A02803D017480088E02808D16FF01D0085
:100C900000F040F96FF01D0000F064F920E0114809
:100CA0000088202803D00F480088602808D16FF002
:100CB000220000F02FF96FF0220000F053F90FE04E
:100CC00008480088402803D006480088502807D1EB
:100CD0006FF0270000F01EF96FF0270000F042F9D6
:100CE00010BD00001200002070B505462D245C48A0
:100CF0000088142803D05A4800881C2806D1634273
:100D000022462146604200F057FEA7E05448008882
:100D10000C2807D0524800880A2803D05048008881
:100D20000E2808D16342224604F10A01C4F10500ED
:100D300000F042FE92E04A48008806280BD048485E
:100D40000088042807D046480088072803D0444874
:100D50000088052808D16342224604F10F01C4F13E
:100D60000A0000F029FE79E03D480088022803D0FF
:100D70003B480088032808D16342224604F114014D
:100D8000C4F10F0000F018FE68E035480088012823
:100D900003D033480088052808D16342224604F175
:100DA0001E01C4F1140000F007FE57E02C48008833
:100DB000182807D02A480088282803D02848008807
:100DC000502808D1611F6242A2F10A006342224604
:100DD00000F0F2FD42E02248008830280BD0204885
:100DE0000088102807D01E480088A02803D01C487F
:100DF0000088E02809D1A4F10A016242A2F10F00A3
:100E00006342224600F0D8FD28E0154800882028DB
:100E100003D013480088602809D1A4F10F01624271
:100E2000A2F114006342224600F0C6FD16E00C4811
:100E30000088402803D00A480088502808D1611F44
:100E40006242A2F10A006342224600F0B5FD05E0CD
:100E5000634222462146604200F0AEFD70BD0000B4
:100E6000120000202DE9F0410746884614461D4631
:100E7000284600F033F8C5F1040007FA00F60F2009
:100E8000284100EA0800064306F00F06E21704EBCB
:100E9000D2625211920002F1E022D2F800212146E2
:100EA000E31704EBD3635B11A4EB431C012303FAA8
:100EB0000CF31A432046E31704EBD3635B119B004A
:100EC00003F1E023C3F800210348005D40EA061067
:100ED00001490855BDE8F08100E400E00146072320
:100EE00023EA01021202054B18684FF6FF0318406F
:100EF000034B18431043014B186070470CED00E0A2
:100F00000000FA054A0A52020243014B1A60704778
:100F100008ED00E000B502468AB1002A07DA002099
:100F20000D49086001200D49C1F89C020DE0012027
:100F30000949086000200949C1F89C0205E0012028
:100F4000054908600549C1F89C02104601F09AFA6B
:100F50000349086000BD000098824242008042427E
:100F60003804014000B502468AB1002A07DA0020A1
:100F70000D49086001200D49C1F8BC020DE00120B7
:100F80000949086000200949C1F8BC0205E00120B8
:100F9000054908600549C1F8BC02104601F072FA23
:100FA0000349086000BD0000B8824242008042420E
:100FB0003404014000B502468AB1002A07DA012054
:100FC0000D49086000200D49C1F890020DE0002095
:100FD0000949086001200949C1F8900205E0012093
:100FE000054908600549C1F89002104601F04AFA27
:100FF0000349086000BD00009482424200804242E2
:101000004004014000B502468AB1002A07DA0120F7
:101010000D49086000200D49C1F8B4020DE0002020
:101020000949086001200949C1F8B40205E001201E
:10103000054908600549C1F8B402104601F022FADA
:10104000401D0349086000BDB08242420080424218
:101050003C0401401CB50948006840F020000749E5
:1010600008600120032100230246CDE900104FF261
:10107000F0010348FFF778FC1CBD00003038024047
:10108000001402402DE9F04107460C46174800685D
:101090003D1A17480068261A14480760144804606F
:1010A000002D08DA6D422846FFF714F94FF4167048
:1010B00001F0E8F806E02846FFF7EEFA4FF4167064
:1010C00001F0E0F8002E08DA7642304600F04CFAE3
:1010D0004FF4167001F0D6F806E03046FFF720FD19
:1010E0004FF4167001F0CEF8BDE8F0811C0000202E
:1010F0002000002030B5002419E004F1B001C8B28E
:10110000002100F09DF90021084600F099F9002126
:10111000102000F095F9002505E00121002000F0E5
:101120008FF9681CC5B2802DF7DB601CC4B2082C97
:10113000E3DB30BD1CB56548006840F0080063493A
:1011400008600220032100230122CDE900100521BF
:101150005F48FFF709FC5D48006840F004005B4908
:1011600008600220032100230122CDE90010C902FA
:101170005848FFF7F9FB5548006840F00100534913
:1011800008600220032100230122CDE90010810321
:101190005148FFF7E9FB4D48006840F010004B490B
:1011A00008600220032100230122CDE90010C101C3
:1011B0004A48FFF7D9FB012049490860642001F043
:1011C00061F800204749C1F8AC02642001F05AF8E8
:1011D0000120434908600021AE2000F031F90021D0
:1011E000084600F02DF90021102000F029F9002117
:1011F000402000F025F90021812000F021F9002194
:10120000CF2000F01DF90021A12000F019F90021E4
:10121000C82000F015F90021A62000F011F90021E6
:10122000A82000F00DF900213F2000F009F900216D
:10123000D32000F005F90021084600F001F9002153
:10124000D52000F0FDF80021802000F0F9F8002101
:10125000D92000F0F5F80021F12000F0F1F800218C
:10126000DA2000F0EDF80021122000F0E9F800216A
:10127000DB2000F0E5F80021402000F0E1F800213B
:10128000202000F0DDF80021022000F0D9F8002134
:101290008D2000F0D5F80021142000F0D1F80021B5
:1012A000A42000F0CDF80021A62000F0C9F800210C
:1012B000AF2000F0C5F80021AF2000F0C1F8FFF723
:1012C00019FF0021084600F00FF81CBD303802401D
:1012D000000C0240000802400000024000100240E2
:1012E000AC0241420000414230B504460D4605F1D2
:1012F000B001C8B2002100F0A3F8102141EA141097
:10130000002100F09DF804F00F0141F001000021E0
:1013100000F096F830BD00002DE9F04107460E467A
:10132000904600250024A8F12000C5B27F2F02DDE1
:101330000027B01CC6B231463846FFF7D5FF00245F
:1013400008E004EB05110F4A505C012100F078F829
:10135000601CC4B2082CF4DB701CC1B23846FFF725
:10136000C3FF002409E004EB05110831054A505C75
:10137000012100F065F8601CC4B2082CF3DBBDE865
:10138000F0810000E22800082DE9FF4F0746914652
:101390001D460D9E4FF0000A002433E0281B401E1E
:1013A000C1B20A2001F075F8B9FBF0F00A21B0FBD8
:1013B000F1F201FB1208BAF1000F13D1681EA0422E
:1013C00010DDB8F1000F0BD1B34606EBDB7149100D
:1013D00001FB0471C8B220220199FFF79DFF0FE0C5
:1013E0004FF0010AB34606EBDB71491001FB0471B3
:1013F000C8B208F13001CAB20199FFF78DFF00BFF2
:10140000601CC4B2AC42C9DBBDE8FF8FF0B5044636
:101410000F46154600260EE0AA5D39462046FFF726
:101420007BFF04F10800C4B2782C02DD0024B81C54
:10143000C7B2701CC6B2A85D0028EDD1F0BD000097
:1014400010B50A461AB10123144C236002E00023B0
:10145000124C23600023124C2360002115E000236E
:101460000E4C0834236000F080031BB101230D4CA7
:10147000236002E000230B4C23600123074C083457
:1014800023604306180E4B1CD9B20829E7DB012361
:10149000034C2360044CC4F8803210BD808241426A
:1014A000BC024042B00241420080414210B50B20D4
:1014B0001F49086078201F4908608220091D0860C4
:1014C00058201D4908604FF4FA7000F0DBFE002040
:1014D0001749086000240FE0174808380068801C8E
:1014E000154908390860081D00680930091D0860A1
:1014F000322000F0C7FE641C052CEDDB82200D4974
:10150000091D0860F0200C49083908609B20091D5E
:1015100008604FF4C87000F0B5FEBE2005490860B1
:101520004FF4167000F0AEFE00F048FF10BD000052
:1015300014000020340400403C08004010B507E0CF
:101540004FF4FA7000F09EFE00F0C2FD00B103E01F
:10155000044800780028F3D100BF01200149087039
:1015600010BD00002A00002010B5044604201749D1
:10157000086025E0C82000F085FE00BF1448006820
:1015800028B113481838006808B1012000E0002095
:101590000128F3D1C82000F075FE00BF0C481C30B4
:1015A000006838B90A481830006818B9084814307B
:1015B000006808B1012000E000200128EED1641E7F
:1015C000002CD7D10C200149086010BD1400002068
:1015D0001802424210B5044653480088142803D02C
:1015E000514800881C2806D10020FFF70BFD002081
:1015F000FFF7E0FC96E04C4800880C2807D04A48EA
:1016000000880A2803D0484800880E2808D16FF0C7
:101610001D00FFF7F7FC6FF01D00FFF7CBFC81E02A
:101620004148008806280BD03F480088042807D08E
:101630003D480088072803D03B480088052808D18A
:101640006FF01D00FFF7DEFC6FF01D00FFF7B2FC2E
:1016500068E035480088022803D033480088032812
:1016600008D16FF02200FFF7CDFC6FF02200FFF7EA
:10167000A1FC57E02C480088012803D02A480088A4
:10168000052808D16FF02700FFF7BCFC6FF027009A
:10169000FFF790FC46E024480088182807D022482D
:1016A0000088282803D020480088502806D11E2012
:1016B000FFF7A8FC1E20FFF77DFC33E01A480088E6
:1016C00030280BD018480088102807D0164800880A
:1016D000A02803D014480088E02806D11E20FFF778
:1016E00091FC1E20FFF766FC1CE00F4800882028B4
:1016F00003D00D480088602806D12320FFF782FC24
:101700002320FFF757FC0DE007480088402803D04E
:1017100005480088502805D12820FFF773FC2820B1
:10172000FFF748FC10BD00000E00002070B5054614
:101730002D2460480088142803D05E4800881C28A7
:1017400008D16042421F2346614204F10A0000F0C2
:1017500033F9ADE0574800880C2807D05548008879
:101760000A2803D0534800880E2809D1631F60421D
:10177000A0F10F02614204F10A0000F01DF997E0A8
:101780004C48008806280BD04A480088042807D017
:1017900048480088072803D04648008805280AD111
:1017A000A4F10A036042A0F11402614204F10A00AC
:1017B00000F002F97CE03F480088022803D03D4851
:1017C000008803280AD1A4F10F036042A0F1190296
:1017D000614204F10A0000F0EFF869E03548008842
:1017E000012803D03348008805280AD1A4F1140346
:1017F0006042A0F12302614204F10A0000F0DCF82B
:1018000056E02C480088182807D02A480088282845
:1018100003D028480088502807D1624204F10A0307
:101820006142184600F0C8F842E02248008830289B
:101830000BD020480088102807D01E480088A02818
:1018400003D01C480088E02808D1C4F1050204F147
:101850000F036142581F00F0AFF829E015480088D7
:10186000202803D013480088602809D1C4F10A0257
:1018700004F11403614204F10A0000F09DF817E03E
:101880000C480088402803D00A480088502809D115
:10189000C4F10F0204F11E03614204F10A0000F0DA
:1018A0008BF805E0234662426142204600F084F84E
:1018B00070BD00000E00002010B5DC200E4908604D
:1018C000BE200E4908606E20091D0860FA200A49F2
:1018D00008390860A520091D08604FF4C87000F0A1
:1018E000D1FC7820054908604FF4167000F0CAFC5E
:1018F00000F064FD10BD00003C08004034040040CE
:1019000010B5DC2010490860BE201049086078201E
:10191000091D08604FF4C87000F0B4FCE6200A49C5
:1019200008390860AF20091D08604FF4C87000F046
:10193000A9FC7820054908604FF4167000F0A2FC5D
:1019400000F03CFD10BD00003C08004034040040A5
:1019500010B5DC2016490860BE20164908609B209F
:10196000091D08604FF4C87000F08CFC9B201149E1
:10197000091D086096200E4908390860D720091D06
:1019800008604FF4C87000F07DFC782009490860B9
:101990004FF4167000F076FCB4200549091F08606A
:1019A0004FF4C87000F06EFC00F008FD10BD0000A0
:1019B0003C0800403404004030B505460C468DB16B
:1019C000002D07DA00204049086001203F49C1F896
:1019D0009C020DE001203C49086000203B49C1F811
:1019E0009C0205E00120384908603849C1F89C0292
:1019F000284600F047FD364908609CB1002C08DA03
:101A0000002031492031086001203049C1F8BC0272
:101A10000FE001202C492031086000202B49C1F83B
:101A2000BC0206E001202849203108602749C1F89E
:101A3000BC02204600F026FD2549091F08609AB126
:101A4000002A08DA01202049091F086000201F49E8
:101A5000C1F890020FE000201B49091F0860012017
:101A60001A49C1F8900206E001201749091F0860D1
:101A70001649C1F89002104600F004FD14490831DF
:101A800008609BB1002B08DA01200F49183108606B
:101A900000200E49C1F8B4020FE000200A491831B5
:101AA000086001200949C1F8B40206E00120064996
:101AB000183108600549C1F8B402184600F0E2FC8C
:101AC0000349091D086030BD9882424200804242AD
:101AD00038040140F0B504460D4616461F4614482A
:101AE000006840F0010012490860002010490831E8
:101AF00008600F4800680F4908400D4908600E480B
:101B0000091D0860081F006820F48020091F086074
:101B1000002007490C3108603B46324629462046E2
:101B200000F00CF800210846FFF7ECF9F0BD0000CA
:101B300000380240FFFFF6FE10300024F0B50446E6
:101B40000D46002100203D4E366846F480363B4F5E
:101B50003E6001E04E1CB1B2384E366806F40036E5
:101B60001EB941F6FF76B142F4DB41F6FF76B14291
:101B700001D1012060E0314E4036366846F0805693
:101B80002E4F40373E602E4E366846F440462C4F6E
:101B90003E602A4E0836366846F41446274F08370A
:101BA0003E60264E366826F08076244F3E6045EA39
:101BB00084160127C7EB520746EA074646EA036642
:101BC00046F480061D4F3F1D3E603E1F366846F0BE
:101BD00080763F1F3E6000BF184E366806F00076E4
:101BE000002EF9D0174E366846F48076154F3E60C9
:101BF0003E46366846F400763E603E46366846F419
:101C000080663E603E46366846F005063E600B4EF6
:101C10000836366826F00306084F08373E603E4611
:101C2000366846F002063E6000BF044E083636684D
:101C300006F00C06082EF8D1F0BD00000038024076
:101C400000700040003C024010B54FF08040008A18
:101C500000F0010018B100F04FFB00F0D3F94FF095
:101C60008040008A20F001004FF08041088210BDC2
:101C700070B505460C460D48006840F001000B4960
:101C800008600806C5620485808940F001000906E5
:101C900088810846008840F00100088002231C2249
:101CA00003210120FFF7DEF870BD0000403802403C
:101CB0007CB505460C464048006840F002003E49AD
:101CC00008603D481038006840F002003A49103979
:101CD00008600120032100230222CDE900103321F6
:101CE0003648FEF741FE022200213448FEF71CFE72
:101CF000022201213148FEF717FE022204212F485B
:101D0000FEF712FE022205212C48FEF70DFE2C489C
:101D10000560011F0C802A481438008840F06000DC
:101D20002749143908800846008840F4C0400880DC
:101D3000081D008840F06000091D088008460088E2
:101D400040F4C0400880081F008840F00800091FC8
:101D500008800846008840F400600880081D00885C
:101D600040F00800091D08800846008840F4006023
:101D70000880081D008840F00100091D0880084601
:101D8000008840F0100008800846008840F4807009
:101D900008800846008840F48050088008482C38A5
:101DA000008840F0800006492C39088008460088E9
:101DB00040F0010008807CBD403802400004024031
:101DC0002C0400407CB505460C464148006840F0B4
:101DD00004003F4908603E481038006840F00200A7
:101DE0003B49103908600120032100230222CDE97C
:101DF00000104FF470713748FEF7B6FD022206213D
:101E00003448FEF791FD022207213248FEF78CFD8F
:101E1000022208212F48FEF787FD022209212D48C2
:101E2000FEF782FD2C480560011F0C802A481438FB
:101E3000008840F06000284914390880084600886E
:101E400040F4C0400880081D008840F06000091D73
:101E500008800846008840F4C0400880081F0088B9
:101E600040F00800091F08800846008840F4006020
:101E70000880081D008840F00800091D08800846F9
:101E8000008840F400600880081D008840F00100D0
:101E9000091D08800846008840F0100008800846A8
:101EA000008840F4807008800846008840F4805024
:101EB000088009482C38008840F0800006492C39F9
:101EC00008800846008840F0010008807CBD0000C2
:101ED00040380240000402402C0800407CB5054612
:101EE0000C464548006840F00200434908604248FB
:101EF0001438006840F004003F491439086001209C
:101F0000032100230222CDE900104FF470713B48F9
:101F1000FEF72AFD032206213848FEF705FD0322BD
:101F200007213648FEF700FD032208213348FEF75B
:101F3000FBFC032209213148FEF7F6FC304805601E
:101F4000011F0C802E481438008840F060002C4996
:101F5000143908800846008840F4C0400880081DF5
:101F6000008840F06000091D08800846008840F4A1
:101F7000C0400880081F008840F00800091F088042
:101F80000846008840F400600880081D008840F082
:101F90000800091D08800846008840F40060088099
:101FA000081D008840F00100091D088008460088CF
:101FB00040F0100008800846008840F480700880D7
:101FC0000846008840F4805008800D48183000888A
:101FD00040F400400A491831088009482C3800882C
:101FE00040F0800006492C3908800846008840F0FF
:101FF000010008807CBD0000443802400008024017
:102000002C04014010B5304800680D2858D2DFE894
:1020100000F0070E12161A1E1F23272B2F30370031
:1020200000231A4619461846FFF7C6FC49E001206E
:10203000FEF7EAFB45E00120FEF702FA41E001204D
:10204000FEF752FE3DE00120FFF770FB39E038E07B
:102050000120FEF775F934E00120FEF755FB30E072
:102060000120FFF7B7FA2CE00120FEF791FD28E0F0
:1020700027E00120FFF7AEFA0120FEF789FD20E0FE
:10208000124800681E280BDA0120FEF759F90120DA
:10209000FEF73AFB0D480068401C0C4908600EE052
:1020A0000A48006800280ADD0120FFF793FA0120A2
:1020B000FEF76EFD05480068401E0449086000E018
:1020C00000BF00BF10BD0000140000201800002059
:1020D00038B52648008800F40040002843D024A2E8
:1020E00006210020FFF792F93225002412E005F1C5
:1020F0000A00C5B22048005D30382049085510203C
:1021000000900846025D012306212846FFF73CF9AE
:10211000601CC4B2032CEADB002014490880184973
:1021200008701648007815494978884219D0134834
:10213000007812498978884213D0104880780F4976
:10214000497888420DD00D480078042809DA0B48F8
:102150004078042805DA09488078042801DA01204B
:1021600038BD0020FCE70020FAE700000A0000204C
:102170005247423A00000000F400002027000020EF
:102180002A0000201349098801F0200109B31149F0
:102190008988C8B21049098801F40041C9B90D28DD
:1021A00006D10D49098841F400410B4A118010E025
:1021B00009490988C1F30D01084A505406490988A4
:1021C000491C054A118011460988C72901DD0021F3
:1021D0001180704700100140080000202C000020F2
:1021E0001449098801F0200111B31249091D098819
:1021F000C8B21149098801F40041C9B90A2806D1B9
:102200000D49098841F400410B4A118010E00A4948
:102210000988C1F30D01094A505407490988491C2E
:10222000054A118011460988C72901DD0021118066
:1022300070470000004800400A000020F400002021
:1022400000BF70474FF0E021096921F004014FF011
:10225000E0221161C21700EB5272C2F3C702074BB2
:102260001A701946097801EB4102C2EBC1114FF611
:10227000FF7202EAC101024A11807047000000208B
:102280000200002070B504464FF4077094FBF0F094
:10229000C6B24FF4077094FBF0F100FB114085B219
:1022A00005E04FF4077000F009F8701EC6B2002E6A
:1022B000F7D115B1284600F001F870BD01460D4A6E
:1022C00012884A434FF0E0235A6100229A610122AA
:1022D0001A6100BF4FF0E022106900F001021AB14C
:1022E00000F48032002AF5D000224FF0E0231A617A
:1022F0009A617047020000200C48006800F07F00DF
:102300000B49088009480068C0F34F20094908803C
:102310000948006900F07F00084908800648006904
:10232000C0F34F2006490880704700001018024093
:102330001200002010000020001002400E000020BB
:102340000C0000201CB51948006840F040001749F7
:1023500008600020032103460246CDE900104FF635
:10236000FF711348FEF700FB1048006840F01000B2
:102370000E4908600020032103460246CDE9001003
:102380004FF6FF710B48FEF7EFFA0848006840F07F
:102390000400064908600020032103460246CDE9F7
:1023A000001002210448FEF7DFFA1CBD303802405D
:1023B00000180240001002400008024010B5D22070
:1023C00009490860E620094908606E20091D086077
:1023D0004FF41670FFF756FF962004490831086045
:1023E0008000FFF74FFF10BD380400403408004064
:1023F0000723022208214FF4A870FFF76BFBA820E7
:10240000FFF720FF4FF41651542000F0D1F84FF49D
:1024100016512A2000F048F840F2473140F2E730E8
:10242000FFF726FC53216320FFF758FD40F24731A8
:1024300040F2CF70FFF73CFC40F2473140F2CF70E2
:10244000FFF7C0FCFFF77EFFFEF704FEFEF772FE0B
:1024500008A200213220FEF7D9FF78200749086042
:10246000FFF7ACFF002006490860FEF777F800BFD1
:10247000FEE700004C202043000000003404004030
:10248000140000200146002901DA484200E0084615
:10249000704710B50246012000E050430B00A1F147
:1024A0000104E1B2F9D110BDF0B52DED028B83B07E
:1024B00005460E463A4905FB01F000EE100AF8EE1B
:1024C000400A300100EE100AB8EE400A80EE801A91
:1024D000B0EE418ABCEEC80A10EE100A84B200EEDB
:1024E000104AB8EE400A38EE400AF3EE000A20EE39
:1024F000200ABCEEC00A10EE107A4FF6FF7000EA18
:102500000414E01984B22748006840F0020025490D
:10251000086024481030006840F4802021491031C0
:1025200008600120022100230A46CDE900104FF483
:1025300040611D48FEF718FA07220A211A48FEF7E3
:10254000F3F907220B211848FEF7EEF9174804802B
:10255000001D008820F400401449091D0880084629
:10256000008840F0080008800846008840F0040019
:1025700008800846008840F02000088002232722B7
:1025800003210846FEF76EFC0848001D008840F451
:1025900000500649091D088003B0BDEC028BF0BD58
:1025A00040420F003038024000040240084800401A
:1025B000F0B52DED028B83B005460E46384905FB7C
:1025C00001F000EE100AF8EE400A300100EE100AA9
:1025D000B8EE400A80EE801AB0EE418ABCEEC80A1E
:1025E00010EE100A84B200EE104AB8EE400A38EE3F
:1025F000400AF3EE000A20EE200ABCEEC00A10EEFC
:10260000107A4FF6FF7000EA0414E01984B22548EE
:10261000006840F001002349086022481430006837
:1026200040F010001F4914310860012002210023EE
:102630000A46CDE900104FF4C0611B48FEF794F93B
:10264000072209211848FEF76FF907220A211648C8
:10265000FEF76AF915480481808920F40040134987
:1026600088810846808940F0080088810846808972
:1026700040F0040088810846808940F0200088816D
:102680000223252203210846FEF7ECFB0748808938
:1026900040F400500549888103B0BDEC028BF0BDC9
:1026A00040420F003038024000000240001001405C
:1026B0004FF04070E1EE100A70470000000000008B
:1026C0000000002F000000000700070000147F1426
:1026D0007F1400242A7F2A12006264081323003624
:1026E0004955225000000503000000001C22410053
:1026F000000041221C000014083E08140008083E97
:102700000808000000A06000000808080808000091
:1027100060600000002010080402003E5149453E60
:102720000000427F4000004261514946002141457E
:102730004B31001814127F10002745454539003CE5
:102740004A494930000171090503003649494936B3
:1027500000064949291E00003636000000005636A2
:102760000000000814224100001414141414000086
:102770004122140800020151090600324959513E14
:10278000007C1211127C007F49494936003E4141CC
:102790004122007F4141221C007F49494941007F7D
:1027A00009090901003E4149497A007F0808087F6C
:1027B0000000417F4100002040413F01007F08149C
:1027C0002241007F40404040007F020C027F007F9A
:1027D0000408107F003E4141413E007F090909067F
:1027E000003E4151215E007F0919294600464949B2
:1027F00049310001017F0101003F4040403F001F7F
:102800002040201F003F4038403F006314081463FD
:1028100000070870080700615149454300007F41E7
:10282000410000552A552A55000041417F0000040F
:102830000201020400404040404000000102040048
:10284000002054545478007F4844443800384444AD
:10285000442000384444487F003854545418000839
:102860007E0901020018A4A4A47C007F0804047857
:102870000000447D4000004080847D00007F1028DF
:1028800044000000417F4000007C04180478007C74
:102890000804047800384444443800FC24242418F4
:1028A0000018242418FC007C080404080048545430
:1028B000542000043F444020003C4040207C001C49
:1028C0002040201C003C4030403C0044281028445C
:1028D000001CA0A0A07C004464544C4414141414A4
:1028E00014140000000000000000000000000000C0
:1028F0000000000000F8000000000000003330007D
:10290000000000100C06100C060000000000000083
:10291000000040C07840C0784000043F04043F04F9
:102920000400007088FC08300000001820FF211E01
:102930000000F008F000E018000000211C031E2138
:102940001E0000F00888700000001E2123241927B3
:10295000211010160E000000000000000000000012
:102960000000000000E0180402000000000718202A
:10297000400000020418E00000000040201807009A
:102980000000404080F0804040000202010F010240
:102990000200000000F0000000000101011F010121
:1029A0000100000000000000000080B07000000086
:1029B0000000000000000000000000010101010112
:1029C00001010000000000000000003030000000A5
:1029D000000000000000806018040060180601007C
:1029E000000000E010080810E000000F1020201088
:1029F0000F00001010F8000000000020203F2020F1
:102A00000000007008080888700000302824222187
:102A1000300000300888884830000018202020113D
:102A20000E000000C02010F8000000070424243F1E
:102A3000240000F8088888080800001921202011C7
:102A40000E0000E0108888180000000F11202011EF
:102A50000E0000380808C83808000000003F0000D9
:102A600000000070880808887000001C22212122C4
:102A70001C0000E010080810E000000031222211C4
:102A80000F00000000C0C000000000000030300057
:102A900000000000008000000000000080600000D6
:102AA000000000008040201008000001020408100F
:102AB000200040404040404040000404040404041E
:102AC00004000008102040800000002010080402CC
:102AD0000100007048080808F000000000303601CE
:102AE0000000C030C828E810E0000718272423148D
:102AF0000B000000C038E0000000203C2302022749
:102B0000382008F8888888700000203F2020201195
:102B10000E00C030080808083800071820202010D0
:102B2000080008F808080810E000203F20202010C6
:102B30000F0008F88888E8081000203F2020232094
:102B4000180008F88888E8081000203F20000300DB
:102B50000000C03008080838000007182020221E96
:102B6000020008F808000008F808203F21010121B0
:102B70003F20000808F8080800000020203F20201F
:102B8000000000000808F8080800C08080807F006E
:102B9000000008F888C028180800203F20012638C7
:102BA000200008F8080000000000203F202020201E
:102BB000300008F8F800F8F80800203F003F003F18
:102BC000200008F830C00008F808203F200007184F
:102BD0003F00E01008080810E0000F10202020102F
:102BE0000F0008F808080808F000203F2101010143
:102BF0000000E01008080810E0000F1824243850E6
:102C00004F0008F8888888887000203F2000030C57
:102C10003020007088080808380000382021212260
:102C20001C00180808F8080818000000203F2000C1
:102C3000000008F808000008F808001F20202020E5
:102C40001F000878880000C83808000007380E0107
:102C50000000F80800F80008F800033C0700073CF3
:102C60000300081868808068180820302C03032CA3
:102C700030200838C800C83808000000203F200075
:102C8000000010080808C838080020382621202035
:102C90001800000000FE020202000000007F404019
:102CA0004000000C30C000000000000000010638A9
:102CB000C00000020202FE000000004040407F0011
:102CC00000000000040202020400000000000000F6
:102CD00000000000000000000000808080808080F4
:102CE00080800002020400000000000000000000DC
:102CF0000000000080808080000000192422222231
:102D00003F2008F8008080000000003F11202011C3
:102D10000E000000008080800000000E11202020A6
:102D20001100000000808088F800000E11202010A3
:102D30003F200000808080800000001F222222228D
:102D40001300008080F0888888180020203F202011
:102D500000000000808080808000006B9494949339
:102D6000600008F8008080800000203F21000020E3
:102D70003F2000809898000000000020203F202085
:102D80000000000000809898000000C08080807FD4
:102D9000000008F8000080808000203F24022D30D1
:102DA0002000000808F8000000000020203F20203C
:102DB00000008080808080808000203F20003F20B5
:102DC000003F8080008080800000203F21000020A4
:102DD0003F200000808080800000001F20202020F5
:102DE0001F00808000808000000080FFA120201153
:102DF0000E000000008080808000000E112020A0C6
:102E0000FF80808080008080800020203F21200083
:102E1000010000008080808080000033242424246E
:102E20001900008080E0808000000000001F20204A
:102E300000008080000000808000001F2020201003
:102E40003F20808080000080808000010E300806D6
:102E5000010080800080008080800F300C030C30E7
:102E60000F0000808000808080000020312E0E3115
:102E70002000808080000080808080818E70180615
:102E8000010000808080808080000021302C222181
:102E9000300000000000807C020200000000003FC3
:102EA000404000000000FF00000000000000FF00A4
:102EB00000000002027C800000000040403F000053
:102EC00000000006010102020404000000000000EE
:102ED00000000000F42E0008000000202C0000007C
:102EE000C4010008202F00082C000020F405000079
:102EF000E0010008000000000000000000000000E9
:102F000000000000000000000000000000000000C1
:102F100000000000000000000000000000000100B0
:040000050800018965
:00000001FF
